{
  "contractName": "Rhino9",
  "abi": [
    {
      "constant": true,
      "inputs": [
        {
          "name": "",
          "type": "address"
        }
      ],
      "name": "patrons",
      "outputs": [
        {
          "name": "",
          "type": "bool"
        }
      ],
      "payable": false,
      "stateMutability": "view",
      "type": "function",
      "signature": "0x2ef46320"
    },
    {
      "constant": true,
      "inputs": [],
      "name": "art",
      "outputs": [
        {
          "name": "",
          "type": "address"
        }
      ],
      "payable": false,
      "stateMutability": "view",
      "type": "function",
      "signature": "0x301bd28e"
    },
    {
      "constant": true,
      "inputs": [],
      "name": "timeAcquired",
      "outputs": [
        {
          "name": "",
          "type": "uint256"
        }
      ],
      "payable": false,
      "stateMutability": "view",
      "type": "function",
      "signature": "0x55c3bf10"
    },
    {
      "constant": true,
      "inputs": [],
      "name": "charityFund",
      "outputs": [
        {
          "name": "",
          "type": "uint256"
        }
      ],
      "payable": false,
      "stateMutability": "view",
      "type": "function",
      "signature": "0x77e1a9fc"
    },
    {
      "constant": true,
      "inputs": [],
      "name": "charity",
      "outputs": [
        {
          "name": "",
          "type": "address"
        }
      ],
      "payable": false,
      "stateMutability": "view",
      "type": "function",
      "signature": "0x934aa023"
    },
    {
      "constant": true,
      "inputs": [
        {
          "name": "",
          "type": "address"
        }
      ],
      "name": "timeHeld",
      "outputs": [
        {
          "name": "",
          "type": "uint256"
        }
      ],
      "payable": false,
      "stateMutability": "view",
      "type": "function",
      "signature": "0x9fc7a65b"
    },
    {
      "constant": true,
      "inputs": [],
      "name": "price",
      "outputs": [
        {
          "name": "",
          "type": "uint256"
        }
      ],
      "payable": false,
      "stateMutability": "view",
      "type": "function",
      "signature": "0xa035b1fe"
    },
    {
      "constant": true,
      "inputs": [],
      "name": "currentCollected",
      "outputs": [
        {
          "name": "",
          "type": "uint256"
        }
      ],
      "payable": false,
      "stateMutability": "view",
      "type": "function",
      "signature": "0xa97d70b1"
    },
    {
      "constant": true,
      "inputs": [],
      "name": "state",
      "outputs": [
        {
          "name": "",
          "type": "uint8"
        }
      ],
      "payable": false,
      "stateMutability": "view",
      "type": "function",
      "signature": "0xc19d93fb"
    },
    {
      "constant": true,
      "inputs": [],
      "name": "deposit",
      "outputs": [
        {
          "name": "",
          "type": "uint256"
        }
      ],
      "payable": false,
      "stateMutability": "view",
      "type": "function",
      "signature": "0xd0e30db0"
    },
    {
      "constant": true,
      "inputs": [],
      "name": "totalCollected",
      "outputs": [
        {
          "name": "",
          "type": "uint256"
        }
      ],
      "payable": false,
      "stateMutability": "view",
      "type": "function",
      "signature": "0xe29eb836"
    },
    {
      "constant": true,
      "inputs": [],
      "name": "timeLastCollected",
      "outputs": [
        {
          "name": "",
          "type": "uint256"
        }
      ],
      "payable": false,
      "stateMutability": "view",
      "type": "function",
      "signature": "0xf07af5f7"
    },
    {
      "inputs": [
        {
          "name": "_charity",
          "type": "address"
        },
        {
          "name": "_artwork",
          "type": "address"
        }
      ],
      "payable": false,
      "stateMutability": "nonpayable",
      "type": "constructor",
      "signature": "constructor"
    },
    {
      "anonymous": false,
      "inputs": [
        {
          "indexed": true,
          "name": "owner",
          "type": "address"
        },
        {
          "indexed": true,
          "name": "price",
          "type": "uint256"
        }
      ],
      "name": "LogBuy",
      "type": "event",
      "signature": "0x4f79409f494e81c38036d80aa8a6507c2cb08d90bfb2fead5519447646b3497e"
    },
    {
      "anonymous": false,
      "inputs": [
        {
          "indexed": true,
          "name": "newPrice",
          "type": "uint256"
        }
      ],
      "name": "LogPriceChange",
      "type": "event",
      "signature": "0x854d6511a28585103049c7770618450f7c9aeb580c69db2913d63869663f4751"
    },
    {
      "anonymous": false,
      "inputs": [
        {
          "indexed": true,
          "name": "prevOwner",
          "type": "address"
        }
      ],
      "name": "LogForeclosure",
      "type": "event",
      "signature": "0x6d6bbefef62d4cb6d0e3a4dd306a71d3632319b1e03659513df86b247dd657fe"
    },
    {
      "anonymous": false,
      "inputs": [
        {
          "indexed": true,
          "name": "collected",
          "type": "uint256"
        }
      ],
      "name": "LogCollection",
      "type": "event",
      "signature": "0x54acb82a9e70d7c289b149758d23167c915428ae854a7aa4abe5bf2f4ef29f36"
    },
    {
      "constant": true,
      "inputs": [],
      "name": "patronageOwed",
      "outputs": [
        {
          "name": "patronageDue",
          "type": "uint256"
        }
      ],
      "payable": false,
      "stateMutability": "view",
      "type": "function",
      "signature": "0x929417db"
    },
    {
      "constant": true,
      "inputs": [],
      "name": "patronageOwedWithTimestamp",
      "outputs": [
        {
          "name": "patronageDue",
          "type": "uint256"
        },
        {
          "name": "timestamp",
          "type": "uint256"
        }
      ],
      "payable": false,
      "stateMutability": "view",
      "type": "function",
      "signature": "0x8bb66d8a"
    },
    {
      "constant": true,
      "inputs": [],
      "name": "foreclosed",
      "outputs": [
        {
          "name": "",
          "type": "bool"
        }
      ],
      "payable": false,
      "stateMutability": "view",
      "type": "function",
      "signature": "0x32567803"
    },
    {
      "constant": true,
      "inputs": [],
      "name": "depositAbleToWithdraw",
      "outputs": [
        {
          "name": "",
          "type": "uint256"
        }
      ],
      "payable": false,
      "stateMutability": "view",
      "type": "function",
      "signature": "0x9443c2e3"
    },
    {
      "constant": true,
      "inputs": [],
      "name": "foreclosureTime",
      "outputs": [
        {
          "name": "",
          "type": "uint256"
        }
      ],
      "payable": false,
      "stateMutability": "view",
      "type": "function",
      "signature": "0x879d5aad"
    },
    {
      "constant": false,
      "inputs": [],
      "name": "_collectPatronage",
      "outputs": [],
      "payable": false,
      "stateMutability": "nonpayable",
      "type": "function",
      "signature": "0x3989e231"
    },
    {
      "constant": false,
      "inputs": [],
      "name": "depositWei",
      "outputs": [],
      "payable": true,
      "stateMutability": "payable",
      "type": "function",
      "signature": "0x15488b88"
    },
    {
      "constant": false,
      "inputs": [
        {
          "name": "_newPrice",
          "type": "uint256"
        }
      ],
      "name": "buy",
      "outputs": [],
      "payable": true,
      "stateMutability": "payable",
      "type": "function",
      "signature": "0xd96a094a"
    },
    {
      "constant": false,
      "inputs": [
        {
          "name": "_newPrice",
          "type": "uint256"
        }
      ],
      "name": "changePrice",
      "outputs": [],
      "payable": false,
      "stateMutability": "nonpayable",
      "type": "function",
      "signature": "0xa2b40d19"
    },
    {
      "constant": false,
      "inputs": [
        {
          "name": "_wei",
          "type": "uint256"
        }
      ],
      "name": "withdrawDeposit",
      "outputs": [
        {
          "name": "",
          "type": "uint256"
        }
      ],
      "payable": false,
      "stateMutability": "nonpayable",
      "type": "function",
      "signature": "0x33289a46"
    },
    {
      "constant": false,
      "inputs": [],
      "name": "withdrawcharityFunds",
      "outputs": [],
      "payable": false,
      "stateMutability": "nonpayable",
      "type": "function",
      "signature": "0x6a7bb7c7"
    },
    {
      "constant": false,
      "inputs": [],
      "name": "exit",
      "outputs": [],
      "payable": false,
      "stateMutability": "nonpayable",
      "type": "function",
      "signature": "0xe9fad8ee"
    }
  ],
  "bytecode": "0x6080604052640ba43b7400600b5564e8d4a51000600c5534801561002257600080fd5b50604051604080611b668339810180604052604081101561004257600080fd5b81019080805190602001909291908051906020019092919050505080600160006101000a81548173ffffffffffffffffffffffffffffffffffffffff021916908373ffffffffffffffffffffffffffffffffffffffff160217905550600160009054906101000a900473ffffffffffffffffffffffffffffffffffffffff1673ffffffffffffffffffffffffffffffffffffffff1663ba0bba406040518163ffffffff167c0100000000000000000000000000000000000000000000000000000000028152600401600060405180830381600087803b15801561012457600080fd5b505af1158015610138573d6000803e3d6000fd5b5050505081600660006101000a81548173ffffffffffffffffffffffffffffffffffffffff021916908373ffffffffffffffffffffffffffffffffffffffff1602179055506000600d60006101000a81548160ff0219169083600181111561019c57fe5b021790555050506119b4806101b26000396000f3fe60806040526004361061013e576000357c0100000000000000000000000000000000000000000000000000000000900463ffffffff16806315488b88146101435780632ef463201461014d578063301bd28e146101b6578063325678031461020d57806333289a461461023c5780633989e2311461028b57806355c3bf10146102a25780636a7bb7c7146102cd57806377e1a9fc146102e4578063879d5aad1461030f5780638bb66d8a1461033a578063929417db1461036c578063934aa023146103975780639443c2e3146103ee5780639fc7a65b14610419578063a035b1fe1461047e578063a2b40d19146104a9578063a97d70b1146104e4578063c19d93fb1461050f578063d0e30db014610548578063d96a094a14610573578063e29eb836146105a1578063e9fad8ee146105cc578063f07af5f7146105e3575b600080fd5b61014b61060e565b005b34801561015957600080fd5b5061019c6004803603602081101561017057600080fd5b81019080803573ffffffffffffffffffffffffffffffffffffffff1690602001909291905050506106d1565b604051808215151515815260200191505060405180910390f35b3480156101c257600080fd5b506101cb6106f1565b604051808273ffffffffffffffffffffffffffffffffffffffff1673ffffffffffffffffffffffffffffffffffffffff16815260200191505060405180910390f35b34801561021957600080fd5b50610222610717565b604051808215151515815260200191505060405180910390f35b34801561024857600080fd5b506102756004803603602081101561025f57600080fd5b8101908080359060200190929190505050610742565b6040518082815260200191505060405180910390f35b34801561029757600080fd5b506102a06108c7565b005b3480156102ae57600080fd5b506102b7610a17565b6040518082815260200191505060405180910390f35b3480156102d957600080fd5b506102e2610a1d565b005b3480156102f057600080fd5b506102f9610b57565b6040518082815260200191505060405180910390f35b34801561031b57600080fd5b50610324610b5d565b6040518082815260200191505060405180910390f35b34801561034657600080fd5b5061034f610bc5565b604051808381526020018281526020019250505060405180910390f35b34801561037857600080fd5b50610381610bd9565b6040518082815260200191505060405180910390f35b3480156103a357600080fd5b506103ac610c47565b604051808273ffffffffffffffffffffffffffffffffffffffff1673ffffffffffffffffffffffffffffffffffffffff16815260200191505060405180910390f35b3480156103fa57600080fd5b50610403610c6d565b6040518082815260200191505060405180910390f35b34801561042557600080fd5b506104686004803603602081101561043c57600080fd5b81019080803573ffffffffffffffffffffffffffffffffffffffff169060200190929190505050610cab565b6040518082815260200191505060405180910390f35b34801561048a57600080fd5b50610493610cc3565b6040518082815260200191505060405180910390f35b3480156104b557600080fd5b506104e2600480360360208110156104cc57600080fd5b8101908080359060200190929190505050610cc9565b005b3480156104f057600080fd5b506104f9610f8e565b6040518082815260200191505060405180910390f35b34801561051b57600080fd5b50610524610f94565b6040518082600181111561053457fe5b60ff16815260200191505060405180910390f35b34801561055457600080fd5b5061055d610fa7565b6040518082815260200191505060405180910390f35b61059f6004803603602081101561058957600080fd5b8101908080359060200190929190505050610fad565b005b3480156105ad57600080fd5b506105b66112e7565b6040518082815260200191505060405180910390f35b3480156105d857600080fd5b506105e16112ed565b005b3480156105ef57600080fd5b506105f861146f565b6040518082815260200191505060405180910390f35b6106166108c7565b6000600181111561062357fe5b600d60009054906101000a900460ff16600181111561063e57fe5b141515156106b4576040517f08c379a000000000000000000000000000000000000000000000000000000000815260040180806020018281038252600a8152602001807f466f7265636c6f7365640000000000000000000000000000000000000000000081525060200191505060405180910390fd5b6106c93460055461147590919063ffffffff16565b600581905550565b60086020528060005260406000206000915054906101000a900460ff1681565b600160009054906101000a900473ffffffffffffffffffffffffffffffffffffffff1681565b600080610722610bd9565b90506005548110151561073957600191505061073f565b60009150505b90565b6000600160009054906101000a900473ffffffffffffffffffffffffffffffffffffffff1673ffffffffffffffffffffffffffffffffffffffff16636352211e602a6040518263ffffffff167c01000000000000000000000000000000000000000000000000000000000281526004018082815260200191505060206040518083038186803b1580156107d457600080fd5b505afa1580156107e8573d6000803e3d6000fd5b505050506040513d60208110156107fe57600080fd5b810190808051906020019092919050505073ffffffffffffffffffffffffffffffffffffffff163373ffffffffffffffffffffffffffffffffffffffff161415156108b1576040517f08c379a000000000000000000000000000000000000000000000000000000000815260040180806020018281038252600a8152602001807f4e6f7420706174726f6e0000000000000000000000000000000000000000000081525060200191505060405180910390fd5b6108b96108c7565b6108c282611496565b919050565b6001808111156108d357fe5b600d60009054906101000a900460ff1660018111156108ee57fe5b1415610a155760006108fe610bd9565b9050600554811015156109725761095a6109498261093b60055461092d6004544261158990919063ffffffff16565b6115ab90919063ffffffff16565b6115e990919063ffffffff16565b60045461147590919063ffffffff16565b600481905550600554905061096d611613565b610995565b4260048190555061098e8160035461147590919063ffffffff16565b6003819055505b6109aa8160055461158990919063ffffffff16565b6005819055506109c58160025461147590919063ffffffff16565b6002819055506109e08160075461147590919063ffffffff16565b600781905550807f54acb82a9e70d7c289b149758d23167c915428ae854a7aa4abe5bf2f4ef29f3660405160405180910390a2505b565b600a5481565b600660009054906101000a900473ffffffffffffffffffffffffffffffffffffffff1673ffffffffffffffffffffffffffffffffffffffff163373ffffffffffffffffffffffffffffffffffffffff16141515610ae2576040517f08c379a000000000000000000000000000000000000000000000000000000000815260040180806020018281038252600b8152602001807f4e6f74206368617269747900000000000000000000000000000000000000000081525060200191505060405180910390fd5b600660009054906101000a900473ffffffffffffffffffffffffffffffffffffffff1673ffffffffffffffffffffffffffffffffffffffff166108fc6007549081150290604051600060405180830381858888f19350505050158015610b4c573d6000803e3d6000fd5b506000600781905550565b60075481565b600080610ba16301e13380610b93600c54610b85600b546000546115ab90919063ffffffff16565b6115e990919063ffffffff16565b6115e990919063ffffffff16565b9050610bbd81610baf610c6d565b6115e990919063ffffffff16565b420191505090565b600080610bd0610bd9565b42915091509091565b6000610c426301e13380610c34600c54610c26600b54610c18610c076004544261158990919063ffffffff16565b6000546115ab90919063ffffffff16565b6115ab90919063ffffffff16565b6115e990919063ffffffff16565b6115e990919063ffffffff16565b905090565b600660009054906101000a900473ffffffffffffffffffffffffffffffffffffffff1681565b600080610c78610bd9565b905060055481101515610c8f576000915050610ca8565b610ca48160055461158990919063ffffffff16565b9150505b90565b60096020528060005260406000206000915090505481565b60005481565b600160009054906101000a900473ffffffffffffffffffffffffffffffffffffffff1673ffffffffffffffffffffffffffffffffffffffff16636352211e602a6040518263ffffffff167c01000000000000000000000000000000000000000000000000000000000281526004018082815260200191505060206040518083038186803b158015610d5957600080fd5b505afa158015610d6d573d6000803e3d6000fd5b505050506040513d6020811015610d8357600080fd5b810190808051906020019092919050505073ffffffffffffffffffffffffffffffffffffffff163373ffffffffffffffffffffffffffffffffffffffff16141515610e36576040517f08c379a000000000000000000000000000000000000000000000000000000000815260040180806020018281038252600a8152602001807f4e6f7420706174726f6e0000000000000000000000000000000000000000000081525060200191505060405180910390fd5b610e3e6108c7565b60006001811115610e4b57fe5b600d60009054906101000a900460ff166001811115610e6657fe5b14151515610edc576040517f08c379a000000000000000000000000000000000000000000000000000000000815260040180806020018281038252600a8152602001807f466f7265636c6f7365640000000000000000000000000000000000000000000081525060200191505060405180910390fd5b60008114151515610f55576040517f08c379a000000000000000000000000000000000000000000000000000000000815260040180806020018281038252600f8152602001807f496e636f7272656374205072696365000000000000000000000000000000000081525060200191505060405180910390fd5b806000819055506000547f854d6511a28585103049c7770618450f7c9aeb580c69db2913d63869663f475160405160405180910390a250565b60035481565b600d60009054906101000a900460ff1681565b60055481565b610fb56108c7565b60008111151561102d576040517f08c379a000000000000000000000000000000000000000000000000000000000815260040180806020018281038252600d8152602001807f5072696365206973207a65726f0000000000000000000000000000000000000081525060200191505060405180910390fd5b600054341115156110a6576040517f08c379a000000000000000000000000000000000000000000000000000000000815260040180806020018281038252600a8152602001807f4e6f7420656e6f7567680000000000000000000000000000000000000000000081525060200191505060405180910390fd5b6000600160009054906101000a900473ffffffffffffffffffffffffffffffffffffffff1673ffffffffffffffffffffffffffffffffffffffff16636352211e602a6040518263ffffffff167c01000000000000000000000000000000000000000000000000000000000281526004018082815260200191505060206040518083038186803b15801561113857600080fd5b505afa15801561114c573d6000803e3d6000fd5b505050506040513d602081101561116257600080fd5b8101908080519060200190929190505050905060018081111561118157fe5b600d60009054906101000a900460ff16600181111561119c57fe5b141561121e57600080549050600060055411156111cb576111c86005548261147590919063ffffffff16565b90505b60008290508073ffffffffffffffffffffffffffffffffffffffff166108fc839081150290604051600060405180830381858888f19350505050158015611216573d6000803e3d6000fd5b505050611279565b6000600181111561122b57fe5b600d60009054906101000a900460ff16600181111561124657fe5b1415611278576001600d60006101000a81548160ff0219169083600181111561126b57fe5b0217905550426004819055505b5b61128e6000543461158990919063ffffffff16565b60058190555061129f813384611760565b813373ffffffffffffffffffffffffffffffffffffffff167f4f79409f494e81c38036d80aa8a6507c2cb08d90bfb2fead5519447646b3497e60405160405180910390a35050565b60025481565b600160009054906101000a900473ffffffffffffffffffffffffffffffffffffffff1673ffffffffffffffffffffffffffffffffffffffff16636352211e602a6040518263ffffffff167c01000000000000000000000000000000000000000000000000000000000281526004018082815260200191505060206040518083038186803b15801561137d57600080fd5b505afa158015611391573d6000803e3d6000fd5b505050506040513d60208110156113a757600080fd5b810190808051906020019092919050505073ffffffffffffffffffffffffffffffffffffffff163373ffffffffffffffffffffffffffffffffffffffff1614151561145a576040517f08c379a000000000000000000000000000000000000000000000000000000000815260040180806020018281038252600a8152602001807f4e6f7420706174726f6e0000000000000000000000000000000000000000000081525060200191505060405180910390fd5b6114626108c7565b61146d600554611496565b565b60045481565b600080828401905083811015151561148c57600080fd5b8091505092915050565b8060055410151515611510576040517f08c379a00000000000000000000000000000000000000000000000000000000081526004018080602001828103825260148152602001807f5769746864726177696e6720746f6f206d75636800000000000000000000000081525060200191505060405180910390fd5b6115258160055461158990919063ffffffff16565b6005819055503373ffffffffffffffffffffffffffffffffffffffff166108fc829081150290604051600060405180830381858888f19350505050158015611571573d6000803e3d6000fd5b506000600554141561158657611585611613565b5b50565b600082821115151561159a57600080fd5b600082840390508091505092915050565b6000808314156115be57600090506115e3565b600082840290508284828115156115d157fe5b041415156115de57600080fd5b809150505b92915050565b600080821115156115f957600080fd5b6000828481151561160657fe5b0490508091505092915050565b6000600160009054906101000a900473ffffffffffffffffffffffffffffffffffffffff1673ffffffffffffffffffffffffffffffffffffffff16636352211e602a6040518263ffffffff167c01000000000000000000000000000000000000000000000000000000000281526004018082815260200191505060206040518083038186803b1580156116a557600080fd5b505afa1580156116b9573d6000803e3d6000fd5b505050506040513d60208110156116cf57600080fd5b810190808051906020019092919050505090506116ee81306000611760565b6000600d60006101000a81548160ff0219169083600181111561170d57fe5b021790555060006003819055508073ffffffffffffffffffffffffffffffffffffffff167f6d6bbefef62d4cb6d0e3a4dd306a71d3632319b1e03659513df86b247dd657fe60405160405180910390a250565b6117c861177a600a5460045461158990919063ffffffff16565b600960008673ffffffffffffffffffffffffffffffffffffffff1673ffffffffffffffffffffffffffffffffffffffff1681526020019081526020016000205461147590919063ffffffff16565b600960008573ffffffffffffffffffffffffffffffffffffffff1673ffffffffffffffffffffffffffffffffffffffff16815260200190815260200160002081905550600160009054906101000a900473ffffffffffffffffffffffffffffffffffffffff1673ffffffffffffffffffffffffffffffffffffffff166323b872dd8484602a6040518463ffffffff167c0100000000000000000000000000000000000000000000000000000000028152600401808473ffffffffffffffffffffffffffffffffffffffff1673ffffffffffffffffffffffffffffffffffffffff1681526020018373ffffffffffffffffffffffffffffffffffffffff1673ffffffffffffffffffffffffffffffffffffffff1681526020018281526020019350505050600060405180830381600087803b15801561190557600080fd5b505af1158015611919573d6000803e3d6000fd5b505050508060008190555042600a819055506001600860008473ffffffffffffffffffffffffffffffffffffffff1673ffffffffffffffffffffffffffffffffffffffff16815260200190815260200160002060006101000a81548160ff02191690831515021790555050505056fea165627a7a723058201b76e91a1d45e314740f66252cc57b6d7fba53cf64f3cb9938ca3ebd9446680f0029",
  "source": "pragma solidity ^0.5.0;\nimport \"./interfaces/IERC721Full.sol\";\nimport \"./utils/SafeMath.sol\";\n\n/** @title This contract is trying to save Rhinos. */\ncontract Rhino9 {\n\n    /*\n    This smart contract collects patronage from current owner through a Harberger tax model and\n    takes stewardship of the artwork if the patron can't pay anymore.\n\n    Harberger Tax (COST):\n    - Artwork is always on sale.\n    - You have to have a price set.\n    - Tax (Patronage) is paid to maintain ownership.\n    - Steward maints control over ERC721.\n    */\n    using SafeMath for uint256;\n\n    uint256 public price; //in wei\n    IERC721Full public art; // ERC721 NFT.\n\n    uint256 public totalCollected; // all patronage ever collected\n    uint256 public currentCollected; // amount currently collected for patron\n    uint256 public timeLastCollected; //\n    uint256 public deposit;\n\n    address payable public charity; // charity's eth wallet address\n    uint256 public charityFund; // charity's share over the money\n\n    mapping (address => bool) public patrons; // storing patrons addresses\n    mapping (address => uint256) public timeHeld; // storing the data of time held by each patron\n\n    uint256 public timeAcquired; // holds the last time asset get buyed\n\n    // 5% patronage\n    uint256 patronageNumerator = 50000000000;\n    uint256 patronageDenominator = 1000000000000;\n\n    enum StewardState { Foreclosed, Owned }\n    StewardState public state; // State of Steward\n\n    /** @dev Construction function .\n      * @param _charity Charity's wallet address.\n      * @param _artwork Artwork's ERC721 address.\n      */\n    constructor(address payable _charity, address _artwork) public {\n        art = IERC721Full(_artwork);\n        art.setup();\n        charity = _charity;\n        state = StewardState.Foreclosed;\n    }\n\n    event LogBuy(address indexed owner, uint256 indexed price);\n    event LogPriceChange(uint256 indexed newPrice);\n    event LogForeclosure(address indexed prevOwner);\n    event LogCollection(uint256 indexed collected);\n\n    modifier onlyPatron() {\n        require(msg.sender == art.ownerOf(42), \"Not patron\");\n        _;\n    }\n\n    modifier collectPatronage() {\n        _collectPatronage();\n        _;\n    }\n\n    /* public view functions */\n    function patronageOwed() public view returns (uint256 patronageDue) {\n        return price.mul(now.sub(timeLastCollected)).mul(patronageNumerator)\n        .div(patronageDenominator).div(365 days);\n    }\n\n    function patronageOwedWithTimestamp() public view returns (uint256 patronageDue, uint256 timestamp) {\n        return (patronageOwed(), now);\n    }\n\n    function foreclosed() public view returns (bool) {\n        // returns whether it is in foreclosed state or not\n        // depending on whether deposit covers patronage due\n        // useful helper function when price should be zero, but contract doesn't reflect it yet.\n        uint256 collection = patronageOwed();\n        if(collection >= deposit) {\n            return true;\n        } else {\n            return false;\n        }\n    }\n\n    // same function as above, basically\n    function depositAbleToWithdraw() public view returns (uint256) {\n        uint256 collection = patronageOwed();\n        if(collection >= deposit) {\n            return 0;\n        } else {\n            return deposit.sub(collection);\n        }\n    }\n\n    /*\n    now + deposit/patronage per second\n    now + depositAbleToWithdraw/(price*nume/denom/365).\n    */\n    function foreclosureTime() public view returns (uint256) {\n        // patronage per second\n        uint256 pps = price.mul(patronageNumerator).div(patronageDenominator).div(365 days);\n        return now + depositAbleToWithdraw().div(pps); // zero division if price is zero.\n    }\n\n    /* actions */\n    function _collectPatronage() public {\n        // determine patronage to pay\n        if (state == StewardState.Owned) {\n            uint256 collection = patronageOwed();\n\n            // should foreclose and stake stewardship\n            if (collection >= deposit) {\n                // up to when was it actually paid for?\n                timeLastCollected = timeLastCollected.add(((now.sub(timeLastCollected)).mul(deposit).div(collection)));\n                collection = deposit; // take what's left.\n\n                _foreclose();\n            } else  {\n                // just a normal collection\n                timeLastCollected = now;\n                currentCollected = currentCollected.add(collection);\n            }\n\n            deposit = deposit.sub(collection);\n            totalCollected = totalCollected.add(collection);\n            charityFund = charityFund.add(collection);\n            emit LogCollection(collection);\n        }\n    }\n\n    // note: anyone can deposit\n    function depositWei() public payable collectPatronage {\n        require(state != StewardState.Foreclosed, \"Foreclosed\");\n        deposit = deposit.add(msg.value);\n    }\n\n    function buy(uint256 _newPrice) public payable collectPatronage {\n        require(_newPrice > 0, \"Price is zero\");\n        require(msg.value > price, \"Not enough\"); // >, coz need to have at least something for deposit\n        address currentOwner = art.ownerOf(42);\n\n        if (state == StewardState.Owned) {\n            uint256 totalToPayBack = price;\n            if(deposit > 0) {\n                totalToPayBack = totalToPayBack.add(deposit);\n            }\n\n            // pay previous owner their price + deposit back.\n            address payable payableCurrentOwner = address(uint160(currentOwner));\n            payableCurrentOwner.transfer(totalToPayBack);\n        } else if(state == StewardState.Foreclosed) {\n            state = StewardState.Owned;\n            timeLastCollected = now;\n        }\n\n        deposit = msg.value.sub(price);\n        transferArtworkTo(currentOwner, msg.sender, _newPrice);\n        emit LogBuy(msg.sender, _newPrice);\n    }\n\n    function changePrice(uint256 _newPrice) public onlyPatron collectPatronage {\n        require(state != StewardState.Foreclosed, \"Foreclosed\");\n        require(_newPrice != 0, \"Incorrect Price\");\n\n        price = _newPrice;\n        emit LogPriceChange(price);\n    }\n\n    function withdrawDeposit(uint256 _wei) public onlyPatron collectPatronage returns (uint256) {\n        _withdrawDeposit(_wei);\n    }\n\n    function withdrawcharityFunds() public {\n        require(msg.sender == charity, \"Not charity\");\n        charity.transfer(charityFund);\n        charityFund = 0;\n    }\n\n    function exit() public onlyPatron collectPatronage {\n        _withdrawDeposit(deposit);\n    }\n\n    /* internal */\n\n    function _withdrawDeposit(uint256 _wei) internal {\n        // note: can withdraw whole deposit, which puts it in immediate to be foreclosed state.\n        require(deposit >= _wei, 'Withdrawing too much');\n\n        deposit = deposit.sub(_wei);\n        msg.sender.transfer(_wei); // msg.sender == patron\n\n        if(deposit == 0) {\n            _foreclose();\n        }\n    }\n\n    function _foreclose() internal {\n        // become steward of artwork (aka foreclose)\n        address currentOwner = art.ownerOf(42);\n        transferArtworkTo(currentOwner, address(this), 0);\n        state = StewardState.Foreclosed;\n        currentCollected = 0;\n\n        emit LogForeclosure(currentOwner);\n    }\n\n    function transferArtworkTo(address _currentOwner, address _newOwner, uint256 _newPrice) internal {\n        // note: it would also tabulate time held in stewardship by smart contract\n        timeHeld[_currentOwner] = timeHeld[_currentOwner].add((timeLastCollected.sub(timeAcquired)));\n\n        art.transferFrom(_currentOwner, _newOwner, 42);\n\n        price = _newPrice;\n        timeAcquired = now;\n        patrons[_newOwner] = true;\n    }\n}",
  "sourcePath": "/Users/johanthan/Code/Wildcards-backend/contracts/Rhino9.sol",
  "compiler": {
    "name": "solc",
    "version": "0.5.0+commit.1d4f565a.Emscripten.clang"
  },
  "schemaVersion": "3.0.6",
  "updatedAt": "2019-04-21T04:51:20.561Z",
  "devdoc": {
    "methods": {
      "constructor": {
        "details": "Construction function .",
        "params": {
          "_artwork": "Artwork's ERC721 address.",
          "_charity": "Charity's wallet address."
        }
      }
    },
    "title": "This contract is trying to save Rhinos. "
  },
  "userdoc": {
    "methods": {}
  }
}