{
  "contractName": "VitalikSteward",
  "abi": [
    {
      "constant": true,
      "inputs": [],
      "name": "assetToken",
      "outputs": [
        {
          "name": "",
          "type": "address"
        }
      ],
      "payable": false,
      "stateMutability": "view",
      "type": "function"
    },
    {
      "constant": true,
      "inputs": [],
      "name": "organization",
      "outputs": [
        {
          "name": "",
          "type": "address"
        }
      ],
      "payable": false,
      "stateMutability": "view",
      "type": "function"
    },
    {
      "constant": true,
      "inputs": [
        {
          "name": "",
          "type": "address"
        }
      ],
      "name": "patrons",
      "outputs": [
        {
          "name": "",
          "type": "bool"
        }
      ],
      "payable": false,
      "stateMutability": "view",
      "type": "function"
    },
    {
      "constant": true,
      "inputs": [],
      "name": "timeAcquired",
      "outputs": [
        {
          "name": "",
          "type": "uint256"
        }
      ],
      "payable": false,
      "stateMutability": "view",
      "type": "function"
    },
    {
      "constant": true,
      "inputs": [
        {
          "name": "",
          "type": "address"
        }
      ],
      "name": "timeHeld",
      "outputs": [
        {
          "name": "",
          "type": "uint256"
        }
      ],
      "payable": false,
      "stateMutability": "view",
      "type": "function"
    },
    {
      "constant": true,
      "inputs": [],
      "name": "price",
      "outputs": [
        {
          "name": "",
          "type": "uint256"
        }
      ],
      "payable": false,
      "stateMutability": "view",
      "type": "function"
    },
    {
      "constant": true,
      "inputs": [],
      "name": "currentCollected",
      "outputs": [
        {
          "name": "",
          "type": "uint256"
        }
      ],
      "payable": false,
      "stateMutability": "view",
      "type": "function"
    },
    {
      "constant": true,
      "inputs": [],
      "name": "organizationFund",
      "outputs": [
        {
          "name": "",
          "type": "uint256"
        }
      ],
      "payable": false,
      "stateMutability": "view",
      "type": "function"
    },
    {
      "constant": true,
      "inputs": [],
      "name": "state",
      "outputs": [
        {
          "name": "",
          "type": "uint8"
        }
      ],
      "payable": false,
      "stateMutability": "view",
      "type": "function"
    },
    {
      "constant": true,
      "inputs": [],
      "name": "deposit",
      "outputs": [
        {
          "name": "",
          "type": "uint256"
        }
      ],
      "payable": false,
      "stateMutability": "view",
      "type": "function"
    },
    {
      "constant": true,
      "inputs": [],
      "name": "totalCollected",
      "outputs": [
        {
          "name": "",
          "type": "uint256"
        }
      ],
      "payable": false,
      "stateMutability": "view",
      "type": "function"
    },
    {
      "constant": true,
      "inputs": [],
      "name": "timeLastCollected",
      "outputs": [
        {
          "name": "",
          "type": "uint256"
        }
      ],
      "payable": false,
      "stateMutability": "view",
      "type": "function"
    },
    {
      "inputs": [
        {
          "name": "_organization",
          "type": "address"
        },
        {
          "name": "_assetToken",
          "type": "address"
        }
      ],
      "payable": false,
      "stateMutability": "nonpayable",
      "type": "constructor"
    },
    {
      "anonymous": false,
      "inputs": [
        {
          "indexed": true,
          "name": "owner",
          "type": "address"
        },
        {
          "indexed": true,
          "name": "price",
          "type": "uint256"
        }
      ],
      "name": "LogBuy",
      "type": "event"
    },
    {
      "anonymous": false,
      "inputs": [
        {
          "indexed": true,
          "name": "newPrice",
          "type": "uint256"
        }
      ],
      "name": "LogPriceChange",
      "type": "event"
    },
    {
      "anonymous": false,
      "inputs": [
        {
          "indexed": true,
          "name": "prevOwner",
          "type": "address"
        }
      ],
      "name": "LogForeclosure",
      "type": "event"
    },
    {
      "anonymous": false,
      "inputs": [
        {
          "indexed": true,
          "name": "collected",
          "type": "uint256"
        }
      ],
      "name": "LogCollection",
      "type": "event"
    },
    {
      "constant": false,
      "inputs": [
        {
          "name": "_newReceivingOrganization",
          "type": "address"
        }
      ],
      "name": "changeReceivingOrganization",
      "outputs": [],
      "payable": false,
      "stateMutability": "nonpayable",
      "type": "function"
    },
    {
      "constant": true,
      "inputs": [],
      "name": "patronageOwed",
      "outputs": [
        {
          "name": "patronageDue",
          "type": "uint256"
        }
      ],
      "payable": false,
      "stateMutability": "view",
      "type": "function"
    },
    {
      "constant": true,
      "inputs": [],
      "name": "patronageOwedWithTimestamp",
      "outputs": [
        {
          "name": "patronageDue",
          "type": "uint256"
        },
        {
          "name": "timestamp",
          "type": "uint256"
        }
      ],
      "payable": false,
      "stateMutability": "view",
      "type": "function"
    },
    {
      "constant": true,
      "inputs": [],
      "name": "foreclosed",
      "outputs": [
        {
          "name": "",
          "type": "bool"
        }
      ],
      "payable": false,
      "stateMutability": "view",
      "type": "function"
    },
    {
      "constant": true,
      "inputs": [],
      "name": "depositAbleToWithdraw",
      "outputs": [
        {
          "name": "",
          "type": "uint256"
        }
      ],
      "payable": false,
      "stateMutability": "view",
      "type": "function"
    },
    {
      "constant": true,
      "inputs": [],
      "name": "foreclosureTime",
      "outputs": [
        {
          "name": "",
          "type": "uint256"
        }
      ],
      "payable": false,
      "stateMutability": "view",
      "type": "function"
    },
    {
      "constant": false,
      "inputs": [],
      "name": "_collectPatronage",
      "outputs": [],
      "payable": false,
      "stateMutability": "nonpayable",
      "type": "function"
    },
    {
      "constant": false,
      "inputs": [],
      "name": "depositWei",
      "outputs": [],
      "payable": true,
      "stateMutability": "payable",
      "type": "function"
    },
    {
      "constant": false,
      "inputs": [
        {
          "name": "_newPrice",
          "type": "uint256"
        }
      ],
      "name": "buy",
      "outputs": [],
      "payable": true,
      "stateMutability": "payable",
      "type": "function"
    },
    {
      "constant": false,
      "inputs": [
        {
          "name": "_newPrice",
          "type": "uint256"
        }
      ],
      "name": "changePrice",
      "outputs": [],
      "payable": false,
      "stateMutability": "nonpayable",
      "type": "function"
    },
    {
      "constant": false,
      "inputs": [
        {
          "name": "_wei",
          "type": "uint256"
        }
      ],
      "name": "withdrawDeposit",
      "outputs": [
        {
          "name": "",
          "type": "uint256"
        }
      ],
      "payable": false,
      "stateMutability": "nonpayable",
      "type": "function"
    },
    {
      "constant": false,
      "inputs": [],
      "name": "withdrawOrganizationFunds",
      "outputs": [],
      "payable": false,
      "stateMutability": "nonpayable",
      "type": "function"
    },
    {
      "constant": false,
      "inputs": [],
      "name": "exit",
      "outputs": [],
      "payable": false,
      "stateMutability": "nonpayable",
      "type": "function"
    }
  ],
  "bytecode": "0x6080604052640ba43b7400600b5564e8d4a51000600c5534801561002257600080fd5b50604051604080611bfc8339810180604052604081101561004257600080fd5b81019080805190602001909291908051906020019092919050505080600160006101000a81548173ffffffffffffffffffffffffffffffffffffffff021916908373ffffffffffffffffffffffffffffffffffffffff160217905550600160009054906101000a900473ffffffffffffffffffffffffffffffffffffffff1673ffffffffffffffffffffffffffffffffffffffff1663ba0bba406040518163ffffffff1660e01b8152600401600060405180830381600087803b15801561010857600080fd5b505af115801561011c573d6000803e3d6000fd5b5050505081600660006101000a81548173ffffffffffffffffffffffffffffffffffffffff021916908373ffffffffffffffffffffffffffffffffffffffff1602179055506000600d60006101000a81548160ff0219169083600181111561018057fe5b02179055505050611a66806101966000396000f3fe6080604052600436106101665760003560e01c8063929417db116100d1578063b2d4dded1161008a578063d96a094a11610064578063d96a094a146105ec578063e29eb8361461061a578063e9fad8ee14610645578063f07af5f71461065c57610166565b8063b2d4dded1461055d578063c19d93fb14610588578063d0e30db0146105c157610166565b8063929417db146104115780639443c2e31461043c5780639fc7a65b14610467578063a035b1fe146104cc578063a2b40d19146104f7578063a97d70b11461053257610166565b80633989e231116101235780633989e2311461030a5780634a8bd2151461032157806355c3bf10146103725780637f1dd4cf1461039d578063879d5aad146103b45780638bb66d8a146103df57610166565b80631083f7611461016b57806315488b88146101c257806323bd4d7a146101cc5780632ef4632014610223578063325678031461028c57806333289a46146102bb575b600080fd5b34801561017757600080fd5b50610180610687565b604051808273ffffffffffffffffffffffffffffffffffffffff1673ffffffffffffffffffffffffffffffffffffffff16815260200191505060405180910390f35b6101ca6106ad565b005b3480156101d857600080fd5b506101e161076e565b604051808273ffffffffffffffffffffffffffffffffffffffff1673ffffffffffffffffffffffffffffffffffffffff16815260200191505060405180910390f35b34801561022f57600080fd5b506102726004803603602081101561024657600080fd5b81019080803573ffffffffffffffffffffffffffffffffffffffff169060200190929190505050610794565b604051808215151515815260200191505060405180910390f35b34801561029857600080fd5b506102a16107b4565b604051808215151515815260200191505060405180910390f35b3480156102c757600080fd5b506102f4600480360360208110156102de57600080fd5b81019080803590602001909291905050506107dd565b6040518082815260200191505060405180910390f35b34801561031657600080fd5b5061031f610944565b005b34801561032d57600080fd5b506103706004803603602081101561034457600080fd5b81019080803573ffffffffffffffffffffffffffffffffffffffff169060200190929190505050610a92565b005b34801561037e57600080fd5b50610387610b99565b6040518082815260200191505060405180910390f35b3480156103a957600080fd5b506103b2610b9f565b005b3480156103c057600080fd5b506103c9610cd7565b6040518082815260200191505060405180910390f35b3480156103eb57600080fd5b506103f4610d3f565b604051808381526020018281526020019250505060405180910390f35b34801561041d57600080fd5b50610426610d53565b6040518082815260200191505060405180910390f35b34801561044857600080fd5b50610451610dc1565b6040518082815260200191505060405180910390f35b34801561047357600080fd5b506104b66004803603602081101561048a57600080fd5b81019080803573ffffffffffffffffffffffffffffffffffffffff169060200190929190505050610dfd565b6040518082815260200191505060405180910390f35b3480156104d857600080fd5b506104e1610e15565b6040518082815260200191505060405180910390f35b34801561050357600080fd5b506105306004803603602081101561051a57600080fd5b8101908080359060200190929190505050610e1b565b005b34801561053e57600080fd5b506105476110be565b6040518082815260200191505060405180910390f35b34801561056957600080fd5b506105726110c4565b6040518082815260200191505060405180910390f35b34801561059457600080fd5b5061059d6110ca565b604051808260018111156105ad57fe5b60ff16815260200191505060405180910390f35b3480156105cd57600080fd5b506105d66110dd565b6040518082815260200191505060405180910390f35b6106186004803603602081101561060257600080fd5b81019080803590602001909291905050506110e3565b005b34801561062657600080fd5b5061062f6113fd565b6040518082815260200191505060405180910390f35b34801561065157600080fd5b5061065a611403565b005b34801561066857600080fd5b50610671611567565b6040518082815260200191505060405180910390f35b600160009054906101000a900473ffffffffffffffffffffffffffffffffffffffff1681565b6106b5610944565b600060018111156106c257fe5b600d60009054906101000a900460ff1660018111156106dd57fe5b1415610751576040517f08c379a000000000000000000000000000000000000000000000000000000000815260040180806020018281038252600a8152602001807f466f7265636c6f7365640000000000000000000000000000000000000000000081525060200191505060405180910390fd5b6107663460055461156d90919063ffffffff16565b600581905550565b600660009054906101000a900473ffffffffffffffffffffffffffffffffffffffff1681565b60086020528060005260406000206000915054906101000a900460ff1681565b6000806107bf610d53565b905060055481106107d45760019150506107da565b60009150505b90565b6000600160009054906101000a900473ffffffffffffffffffffffffffffffffffffffff1673ffffffffffffffffffffffffffffffffffffffff16636352211e602a6040518263ffffffff1660e01b81526004018082815260200191505060206040518083038186803b15801561085357600080fd5b505afa158015610867573d6000803e3d6000fd5b505050506040513d602081101561087d57600080fd5b810190808051906020019092919050505073ffffffffffffffffffffffffffffffffffffffff163373ffffffffffffffffffffffffffffffffffffffff161461092e576040517f08c379a000000000000000000000000000000000000000000000000000000000815260040180806020018281038252600a8152602001807f4e6f7420706174726f6e0000000000000000000000000000000000000000000081525060200191505060405180910390fd5b610936610944565b61093f8261158c565b919050565b60018081111561095057fe5b600d60009054906101000a900460ff16600181111561096b57fe5b1415610a9057600061097b610d53565b905060055481106109ed576109d56109c4826109b66005546109a86004544261167d90919063ffffffff16565b61169d90919063ffffffff16565b6116d790919063ffffffff16565b60045461156d90919063ffffffff16565b60048190555060055490506109e86116fd565b610a10565b42600481905550610a098160035461156d90919063ffffffff16565b6003819055505b610a258160055461167d90919063ffffffff16565b600581905550610a408160025461156d90919063ffffffff16565b600281905550610a5b8160075461156d90919063ffffffff16565b600781905550807f54acb82a9e70d7c289b149758d23167c915428ae854a7aa4abe5bf2f4ef29f3660405160405180910390a2505b565b600660009054906101000a900473ffffffffffffffffffffffffffffffffffffffff1673ffffffffffffffffffffffffffffffffffffffff163373ffffffffffffffffffffffffffffffffffffffff1614610b55576040517f08c379a00000000000000000000000000000000000000000000000000000000081526004018080602001828103825260108152602001807f4e6f74206f7267616e697a6174696f6e0000000000000000000000000000000081525060200191505060405180910390fd5b80600660006101000a81548173ffffffffffffffffffffffffffffffffffffffff021916908373ffffffffffffffffffffffffffffffffffffffff16021790555050565b600a5481565b600660009054906101000a900473ffffffffffffffffffffffffffffffffffffffff1673ffffffffffffffffffffffffffffffffffffffff163373ffffffffffffffffffffffffffffffffffffffff1614610c62576040517f08c379a00000000000000000000000000000000000000000000000000000000081526004018080602001828103825260108152602001807f4e6f74206f7267616e697a6174696f6e0000000000000000000000000000000081525060200191505060405180910390fd5b600660009054906101000a900473ffffffffffffffffffffffffffffffffffffffff1673ffffffffffffffffffffffffffffffffffffffff166108fc6007549081150290604051600060405180830381858888f19350505050158015610ccc573d6000803e3d6000fd5b506000600781905550565b600080610d1b6301e13380610d0d600c54610cff600b5460005461169d90919063ffffffff16565b6116d790919063ffffffff16565b6116d790919063ffffffff16565b9050610d3781610d29610dc1565b6116d790919063ffffffff16565b420191505090565b600080610d4a610d53565b42915091509091565b6000610dbc6301e13380610dae600c54610da0600b54610d92610d816004544261167d90919063ffffffff16565b60005461169d90919063ffffffff16565b61169d90919063ffffffff16565b6116d790919063ffffffff16565b6116d790919063ffffffff16565b905090565b600080610dcc610d53565b90506005548110610de1576000915050610dfa565b610df68160055461167d90919063ffffffff16565b9150505b90565b60096020528060005260406000206000915090505481565b60005481565b600160009054906101000a900473ffffffffffffffffffffffffffffffffffffffff1673ffffffffffffffffffffffffffffffffffffffff16636352211e602a6040518263ffffffff1660e01b81526004018082815260200191505060206040518083038186803b158015610e8f57600080fd5b505afa158015610ea3573d6000803e3d6000fd5b505050506040513d6020811015610eb957600080fd5b810190808051906020019092919050505073ffffffffffffffffffffffffffffffffffffffff163373ffffffffffffffffffffffffffffffffffffffff1614610f6a576040517f08c379a000000000000000000000000000000000000000000000000000000000815260040180806020018281038252600a8152602001807f4e6f7420706174726f6e0000000000000000000000000000000000000000000081525060200191505060405180910390fd5b610f72610944565b60006001811115610f7f57fe5b600d60009054906101000a900460ff166001811115610f9a57fe5b141561100e576040517f08c379a000000000000000000000000000000000000000000000000000000000815260040180806020018281038252600a8152602001807f466f7265636c6f7365640000000000000000000000000000000000000000000081525060200191505060405180910390fd5b6000811415611085576040517f08c379a000000000000000000000000000000000000000000000000000000000815260040180806020018281038252600f8152602001807f496e636f7272656374205072696365000000000000000000000000000000000081525060200191505060405180910390fd5b806000819055506000547f854d6511a28585103049c7770618450f7c9aeb580c69db2913d63869663f475160405160405180910390a250565b60035481565b60075481565b600d60009054906101000a900460ff1681565b60055481565b6110eb610944565b60008111611161576040517f08c379a000000000000000000000000000000000000000000000000000000000815260040180806020018281038252600d8152602001807f5072696365206973207a65726f0000000000000000000000000000000000000081525060200191505060405180910390fd5b60005434116111d8576040517f08c379a000000000000000000000000000000000000000000000000000000000815260040180806020018281038252600a8152602001807f4e6f7420656e6f7567680000000000000000000000000000000000000000000081525060200191505060405180910390fd5b6000600160009054906101000a900473ffffffffffffffffffffffffffffffffffffffff1673ffffffffffffffffffffffffffffffffffffffff16636352211e602a6040518263ffffffff1660e01b81526004018082815260200191505060206040518083038186803b15801561124e57600080fd5b505afa158015611262573d6000803e3d6000fd5b505050506040513d602081101561127857600080fd5b8101908080519060200190929190505050905060018081111561129757fe5b600d60009054906101000a900460ff1660018111156112b257fe5b141561133457600080549050600060055411156112e1576112de6005548261156d90919063ffffffff16565b90505b60008290508073ffffffffffffffffffffffffffffffffffffffff166108fc839081150290604051600060405180830381858888f1935050505015801561132c573d6000803e3d6000fd5b50505061138f565b6000600181111561134157fe5b600d60009054906101000a900460ff16600181111561135c57fe5b141561138e576001600d60006101000a81548160ff0219169083600181111561138157fe5b0217905550426004819055505b5b6113a46000543461167d90919063ffffffff16565b6005819055506113b581338461182e565b813373ffffffffffffffffffffffffffffffffffffffff167f4f79409f494e81c38036d80aa8a6507c2cb08d90bfb2fead5519447646b3497e60405160405180910390a35050565b60025481565b600160009054906101000a900473ffffffffffffffffffffffffffffffffffffffff1673ffffffffffffffffffffffffffffffffffffffff16636352211e602a6040518263ffffffff1660e01b81526004018082815260200191505060206040518083038186803b15801561147757600080fd5b505afa15801561148b573d6000803e3d6000fd5b505050506040513d60208110156114a157600080fd5b810190808051906020019092919050505073ffffffffffffffffffffffffffffffffffffffff163373ffffffffffffffffffffffffffffffffffffffff1614611552576040517f08c379a000000000000000000000000000000000000000000000000000000000815260040180806020018281038252600a8152602001807f4e6f7420706174726f6e0000000000000000000000000000000000000000000081525060200191505060405180910390fd5b61155a610944565b61156560055461158c565b565b60045481565b60008082840190508381101561158257600080fd5b8091505092915050565b806005541015611604576040517f08c379a00000000000000000000000000000000000000000000000000000000081526004018080602001828103825260148152602001807f5769746864726177696e6720746f6f206d75636800000000000000000000000081525060200191505060405180910390fd5b6116198160055461167d90919063ffffffff16565b6005819055503373ffffffffffffffffffffffffffffffffffffffff166108fc829081150290604051600060405180830381858888f19350505050158015611665573d6000803e3d6000fd5b506000600554141561167a576116796116fd565b5b50565b60008282111561168c57600080fd5b600082840390508091505092915050565b6000808314156116b057600090506116d1565b60008284029050828482816116c157fe5b04146116cc57600080fd5b809150505b92915050565b60008082116116e557600080fd5b60008284816116f057fe5b0490508091505092915050565b6000600160009054906101000a900473ffffffffffffffffffffffffffffffffffffffff1673ffffffffffffffffffffffffffffffffffffffff16636352211e602a6040518263ffffffff1660e01b81526004018082815260200191505060206040518083038186803b15801561177357600080fd5b505afa158015611787573d6000803e3d6000fd5b505050506040513d602081101561179d57600080fd5b810190808051906020019092919050505090506117bc8130600061182e565b6000600d60006101000a81548160ff021916908360018111156117db57fe5b021790555060006003819055508073ffffffffffffffffffffffffffffffffffffffff167f6d6bbefef62d4cb6d0e3a4dd306a71d3632319b1e03659513df86b247dd657fe60405160405180910390a250565b611896611848600a5460045461167d90919063ffffffff16565b600960008673ffffffffffffffffffffffffffffffffffffffff1673ffffffffffffffffffffffffffffffffffffffff1681526020019081526020016000205461156d90919063ffffffff16565b600960008573ffffffffffffffffffffffffffffffffffffffff1673ffffffffffffffffffffffffffffffffffffffff16815260200190815260200160002081905550600160009054906101000a900473ffffffffffffffffffffffffffffffffffffffff1673ffffffffffffffffffffffffffffffffffffffff166323b872dd8484602a6040518463ffffffff1660e01b8152600401808473ffffffffffffffffffffffffffffffffffffffff1673ffffffffffffffffffffffffffffffffffffffff1681526020018373ffffffffffffffffffffffffffffffffffffffff1673ffffffffffffffffffffffffffffffffffffffff1681526020018281526020019350505050600060405180830381600087803b1580156119b757600080fd5b505af11580156119cb573d6000803e3d6000fd5b505050508060008190555042600a819055506001600860008473ffffffffffffffffffffffffffffffffffffffff1673ffffffffffffffffffffffffffffffffffffffff16815260200190815260200160002060006101000a81548160ff02191690831515021790555050505056fea165627a7a72305820f4c4d8f02ea7bdd5bdc0edba87bb48e6a7ba4d02a8fc3d59644a7e85cee2333d0029",
  "source": "pragma solidity ^0.5.0;\nimport \"./interfaces/IERC721Full.sol\";\nimport \"./utils/SafeMath.sol\";\n\ncontract VitalikSteward {\n    \n    /*\n    This smart contract collects patronage from current owner through a Harberger tax model and \n    takes stewardship of the asset token if the patron can't pay anymore.\n\n    Harberger Tax (COST): \n    - Asset is always on sale.\n    - You have to have a price set.\n    - Tax (Patronage) is paid to maintain ownership.\n    - Steward maints control over ERC721.\n    */\n    using SafeMath for uint256;\n    \n    uint256 public price; //in wei\n    IERC721Full public assetToken; // ERC721 NFT.\n    \n    uint256 public totalCollected; // all patronage ever collected\n    uint256 public currentCollected; // amount currently collected for patron  \n    uint256 public timeLastCollected; // \n    uint256 public deposit;\n\n    address payable public organization; // non-profit organization\n    uint256 public organizationFund;\n    \n    mapping (address => bool) public patrons;\n    mapping (address => uint256) public timeHeld;\n\n    uint256 public timeAcquired;\n    \n    // 5% patronage\n    uint256 patronageNumerator = 50000000000;\n    uint256 patronageDenominator = 1000000000000;\n\n    enum StewardState { Foreclosed, Owned }\n    StewardState public state;\n\n    constructor(address payable _organization, address _assetToken) public {\n        assetToken = IERC721Full(_assetToken);\n        assetToken.setup();\n        organization = _organization;\n        state = StewardState.Foreclosed;\n    } \n\n    event LogBuy(address indexed owner, uint256 indexed price);\n    event LogPriceChange(uint256 indexed newPrice);\n    event LogForeclosure(address indexed prevOwner);\n    event LogCollection(uint256 indexed collected);\n    \n    modifier onlyPatron() {\n        require(msg.sender == assetToken.ownerOf(42), \"Not patron\");\n        _;\n    }\n\n    modifier onlyReceivingOrganization() {\n        require(msg.sender == organization, \"Not organization\");\n        _;\n    }\n\n    modifier collectPatronage() {\n       _collectPatronage(); \n       _;\n    }\n\n    function changeReceivingOrganization(address payable _newReceivingOrganization) public onlyReceivingOrganization {\n        organization = _newReceivingOrganization;\n    }\n\n    /* public view functions */\n    function patronageOwed() public view returns (uint256 patronageDue) {\n        return price.mul(now.sub(timeLastCollected)).mul(patronageNumerator)\n            .div(patronageDenominator).div(365 days);\n    }\n\n    function patronageOwedWithTimestamp() public view returns (uint256 patronageDue, uint256 timestamp) {\n        return (patronageOwed(), now);\n    }\n\n    function foreclosed() public view returns (bool) {\n        // returns whether it is in foreclosed state or not\n        // depending on whether deposit covers patronage due\n        // useful helper function when price should be zero, but contract doesn't reflect it yet.\n        uint256 collection = patronageOwed();\n        if(collection >= deposit) {\n            return true;\n        } else {\n            return false;\n        }\n    }\n\n    // same function as above, basically\n    function depositAbleToWithdraw() public view returns (uint256) {\n        uint256 collection = patronageOwed();\n        if(collection >= deposit) {\n            return 0;\n        } else {\n            return deposit.sub(collection);\n        }\n    }\n\n    /*\n    now + deposit/patronage per second \n    now + depositAbleToWithdraw/(price*nume/denom/365).\n    */\n    function foreclosureTime() public view returns (uint256) {\n        // patronage per second\n        uint256 pps = price.mul(patronageNumerator).div(patronageDenominator).div(365 days);\n        return now + depositAbleToWithdraw().div(pps); // zero division if price is zero.\n    }\n\n    /* actions */\n    function _collectPatronage() public {\n        // determine patronage to pay\n        if (state == StewardState.Owned) {\n            uint256 collection = patronageOwed();\n            \n            // should foreclose and stake stewardship\n            if (collection >= deposit) {\n                // up to when was it actually paid for?\n                timeLastCollected = timeLastCollected.add(((now.sub(timeLastCollected)).mul(deposit).div(collection)));\n                collection = deposit; // take what's left.\n\n                _foreclose();\n            } else  {\n                // just a normal collection\n                timeLastCollected = now;\n                currentCollected = currentCollected.add(collection);\n            }\n            \n            deposit = deposit.sub(collection);\n            totalCollected = totalCollected.add(collection);\n            organizationFund = organizationFund.add(collection);\n            emit LogCollection(collection);\n        }\n    }\n    \n    // note: anyone can deposit\n    function depositWei() public payable collectPatronage {\n        require(state != StewardState.Foreclosed, \"Foreclosed\");\n        deposit = deposit.add(msg.value);\n    }\n    \n    function buy(uint256 _newPrice) public payable collectPatronage {\n        require(_newPrice > 0, \"Price is zero\");\n        require(msg.value > price, \"Not enough\"); // >, coz need to have at least something for deposit\n        address currentOwner = assetToken.ownerOf(42);\n\n        if (state == StewardState.Owned) {\n            uint256 totalToPayBack = price;\n            if(deposit > 0) {\n                totalToPayBack = totalToPayBack.add(deposit);\n            }  \n    \n            // pay previous owner their price + deposit back.\n            address payable payableCurrentOwner = address(uint160(currentOwner));\n            payableCurrentOwner.transfer(totalToPayBack);\n        } else if(state == StewardState.Foreclosed) {\n            state = StewardState.Owned;\n            timeLastCollected = now;\n        }\n        \n        deposit = msg.value.sub(price);\n        transferAssetTokenTo(currentOwner, msg.sender, _newPrice);\n        emit LogBuy(msg.sender, _newPrice);\n    }\n\n    function changePrice(uint256 _newPrice) public onlyPatron collectPatronage {\n        require(state != StewardState.Foreclosed, \"Foreclosed\");\n        require(_newPrice != 0, \"Incorrect Price\");\n        \n        price = _newPrice;\n        emit LogPriceChange(price);\n    }\n    \n    function withdrawDeposit(uint256 _wei) public onlyPatron collectPatronage returns (uint256) {\n        _withdrawDeposit(_wei);\n    }\n\n    function withdrawOrganizationFunds() public {\n        require(msg.sender == organization, \"Not organization\");\n        organization.transfer(organizationFund);\n        organizationFund = 0;\n    }\n\n    function exit() public onlyPatron collectPatronage {\n        _withdrawDeposit(deposit);\n    }\n\n    /* internal */\n\n    function _withdrawDeposit(uint256 _wei) internal {\n        // note: can withdraw whole deposit, which puts it in immediate to be foreclosed state.\n        require(deposit >= _wei, 'Withdrawing too much');\n\n        deposit = deposit.sub(_wei);\n        msg.sender.transfer(_wei); // msg.sender == patron\n\n        if(deposit == 0) {\n            _foreclose();\n        }\n    }\n\n    function _foreclose() internal {\n        // become steward of assetToken (aka foreclose)\n        address currentOwner = assetToken.ownerOf(42);\n        transferAssetTokenTo(currentOwner, address(this), 0);\n        state = StewardState.Foreclosed;\n        currentCollected = 0;\n\n        emit LogForeclosure(currentOwner);\n    }\n\n    function transferAssetTokenTo(address _currentOwner, address _newOwner, uint256 _newPrice) internal {\n        // note: it would also tabulate time held in stewardship by smart contract\n        timeHeld[_currentOwner] = timeHeld[_currentOwner].add((timeLastCollected.sub(timeAcquired)));\n        \n        assetToken.transferFrom(_currentOwner, _newOwner, 42);\n\n        price = _newPrice;\n        timeAcquired = now;\n        patrons[_newOwner] = true;\n    }\n}\n",
  "sourcePath": "/home/jasoons/Documents/Code/Wildcards-backend/contracts/VitalikSteward.sol",
  "compiler": {
    "name": "solc",
    "version": "0.5.8+commit.23d335f2.Emscripten.clang"
  },
  "schemaVersion": "3.0.11",
  "updatedAt": "2019-06-20T06:26:06.368Z",
  "devdoc": {
    "methods": {}
  },
  "userdoc": {
    "methods": {}
  }
}